:100000000C947B050C9498050C9498050C94980519
:100010000C9498050C9498050C9498050C949805EC
:100020000C9498050C9498050C9498050C949805DC
:100030000C9498050C9498050C9498050C949805CC
:100040000C9498050C9498050C9498050C949805BC
:100050000C9498050B02020406060706020303032C
:100060000402030203050305050505050505050250
:100070000205050505090707070706060707020524
:100080000605090707070707060606060806060607
:100090000303030405030505050505030505020221
:1000A0000502080506050503050305050604040405
:1000B0000302030502020202020406060602090602
:1000C00003060606060203030505030204020705EC
:1000D00003050404040204050505070205040706D8
:1000E00005050207060204030303050402030505D0
:1000F00005050403040707070707050706070506A4
:10010000050603030706070707070707050706068F
:10011000060606060603050505050305050505058E
:100120000505030306060505060606060403050580
:1001300005050403020000000000000000000000AC
:1001400000004040404040004000000F0F5F5F0F44
:100150000F0F0F0F0F0F03032B2B7F2B7F2B2B0367
:10016000030303133B57331B573B13030101016385
:10017000650911274701010303235323574B4B37CD
:1001800003033F3F7F7F3F3F3F3F3F3F3F1F1F3FB7
:100190005F5F5F5F5F5F5F3F1F1F5F3F3F3F3F3FAF
:1001A0003F3F5F1F1F7F7F1F1F1F1F1F1F1F0F0F3F
:1001B0000F0F0F2F7F2F0F0F0F3F3F3F3F3F3F3F4F
:1001C0003F7F7F3F1F1F1F1F1F1F7F1F1F1F1F3FBF
:1001D0003F3F3F3F3F3F3F7F3F3F1F1F3F3F3F7FEF
:1001E0005F5F5F1F1F0707374F4F4F4F4F3707079F
:1001F0001F1F3F7F3F3F3F3F3F1F1F0707374F0FE7
:100200001727477F07070707374F0F170F4F370786
:10021000070707173737577F1717070707077F475E
:10022000774F0F4F3707070707374F47774F4F373E
:10023000070707077F0F171727272707070707371E
:100240004F4F374F4F3707070707374F4F3F0F4F76
:100250003707073F3F3F3F3F7F3F3F7F3F3F3F3FA6
:100260003F3F3F7F3F3F7F7F3F07070707172747F6
:1002700027170707070707070777077707070707FE
:10028000070707472717274707070707374F0F179E
:100290002707270707007F007F1E7F217F4CFF5421
:1002A000FF54FF4B7F207F1E7F007F01011919251E
:1002B000253D4343010101017D43437D43437D01CE
:1002C0000101013D43414141433D010101017D43A4
:1002D000434343437D010103037F43437B43437F08
:1002E000030303037F43437B434343030301013D74
:1002F00043414F43473B010101014343437F434394
:100300004301013F3F7F7F7F7F7F7F7F3F3F070725
:100310000F0F0F0F4F4F3707070303474B5363531D
:100320004B47030307074747474747477F070700F0
:100330007F007F61FF61FF52FF52FF4CFF4CFF4087
:10034000FF007F007F0101636353534B4B47010163
:1003500001013D43434343433D010101017D4343CB
:100360007D414141010101013D4343434B473D0371
:100370000101017D43437D434343010103033B47A7
:10038000433B07473B030303037F13131313131369
:10039000030303034747474747473B030303034719
:1003A000472B2B2B1313030300004141222A2A144D
:1003B000140000030347472B132B47470303030392
:1003C00047472B13131313030303037F070B132355
:1003D000437F03031F1F7F5F5F5F5F5F5F5F7F1F61
:1003E0001F1F5F5F5F7F3F3F1F1F1F1F7F3F3F3FFD
:1003F0003F3F3F3F7F0F0F2F5F0F0F0F0F0F0F0F6D
:1004000007070707070707070707FF1F1F5F3F1FAC
:100410001F1F1F1F1F1F07070707370F3F4F3F07EC
:100420000707074747774F4F4F7707070707070724
:10043000374F474F37070707070F0F3F4F4F4F3FC4
:10044000070707070707374F7F473707071F1F3F74
:100450005F5F7F5F5F5F1F1F070707073F4F4F4FBC
:100460003F0F7707074747576F4F4F4F07073F3FEC
:100470007F3F7F7F7F7F7F3F3F3F3F7F3F7F7F7F0C
:100480007F7F7F7F07074747576767574F07073FBC
:100490003F7F7F7F7F7F7F7F3F3F000000007E495F
:1004A000494949000007070707774F4F4F4F070794
:1004B000030303033B4747473B030307070707774C
:1004C0004F4F4F774747070707073F4F4F4F3F0FA4
:1004D0000F1F1F1F1F7F5F5F5F5F1F1F070707073C
:1004E0003F47370F7707071F1F1F5F7F5F5F5F3F24
:1004F0001F1F070707074F4F4F4F3F070707070704
:10050000074F4F4F37370707030303034757572B4F
:100510002B03030F0F0F0F5F5F2F5F5F0F0F0F0F87
:100520000F0F5F5F5F5F3F1F6F0F0F0F0F7F1F2F5B
:100530004F7F0F0F1F1F3F3F3F3F7F3F3F3F3F3FDB
:100540003F3F7F7F7F7F7F7F7F3F1F1F5F5F5F5FBB
:100550003F5F5F5F5F0707072F570707070707071B
:100560003F3F3F7F7F7F7F7F7F7F3F3F3F3F7F7F5B
:100570007F7F7F7F7F3F3F3F3F7F7F7F7F7F7F7F8B
:100580003F3F3F3F3F3F3F3F3F7F7F3F3F3F3F7FBB
:100590007F7F7F7F7F7F3F0F0F0F0F0F0F0F0F5F4B
:1005A0005F0F03030303030303035703030303134F
:1005B000137F131313130303030313137F133B134B
:1005C0001303033F3F3F3F3F3F3F3F3F3F3F007FDE
:1005D000007F007FC47FC87F107F207F4DFF8DFF8D
:1005E000007F007F2B133B47433B07473B03031F21
:1005F0001F1F1F1F1F3F5F3F1F1F0B133B47433B27
:1006000007473B03032B137F131313131313030326
:100610002B137F070B1323437F03030B137F070B5E
:100620001323437F03033F3F3F3F3F3F3F3F3F3F56
:100630003F1F1F1F3F5F1F1F1F1F1F1F1F1F1F3F2A
:100640005F1F1F1F1F1F1F0707072F5707070707DA
:1006500007070707072F570707070707071F1F1F6A
:100660001F1F5F5F1F1F1F1F3F3F3F3F3F3FFF3F5A
:100670003F3F3F0F0F0F0F0F0F7F0F0F0F0F3F3F2A
:100680003F3F3F3F3F3F3F3F3F01FD5D5501010180
:1006900001010101072F17073F47370F7707071F92
:1006A0001F1F1F1F1F5F3F5F1F1F070F17073F47BA
:1006B000370F7707070F0F1F5F6F4F4F4F2F0F0F2A
:1006C0000F5F2F0F7F1F2F4F7F0F0F0F1F2F0F7FDA
:1006D0001F2F4F7F0F0F3F3F3F3F3F3F3F3F3F3F6A
:1006E0003FAF4F0F0F0F0F0F0F0F0F0F8F77070732
:1006F00007070707070707070747476747C7477FF2
:10070000070707074F37374F070707070701011983
:100710001925253D434305073F3F7F7F7F7F3F7F6F
:100720007F7F7F0707374F27572F174F37070F0F49
:100730000F5F0F0F0F0F0F0F0F010119255B5B25C7
:100740001901010103033B47433B07473B133307B1
:1007500007070707072F572F070707070707070789
:100760007F0F0707073F3F3F3F3F3F7F3F3F3F3FF1
:10077000010119255B53251901010113037F070BA3
:100780001323437F03033F3F3F7F3F3F3F3F3F3FB5
:100790003F0F0F0F0F2F7F2F0F7F0F0F1F1F1F1FD9
:1007A0001F1F1F1F1F9FDF1F1F5F5F7F5FDF5F5FB9
:1007B0001F1F5F9F1F1F1F1F1F1F1F1F1F070707D1
:1007C00007075757576F47470F0F3F7F7F7F3F3FC1
:1007D0003F3F0F3F3F3F3F3F7F3F3F3F3F3F1F1F59
:1007E0001F1F1F1F1F1F1F3F7F07070707370F3FD1
:1007F0004F3F171F070707073F47370F7717370781
:100800000707070707572F57070707075757474790
:1008100047477F07070F5FAF0F0F0F0F0F0F0F0F28
:100820001F1F7F7F5F5F5F5F5F1F1F0F0F2F0F7F98
:100830001F2F4F7F0F0F09117D43437D434343011A
:10084000010911191925253D4343010119251919DC
:1008500025253D43430101231D191925253D43430A
:1008600001012501191925253D434301012747476A
:1008700047474747477F070709113D4341414143E8
:100880003D010103033B47434343473B13331509F2
:100890003D43414141433D010117277F47477F4782
:1008A000477F070703037F43437B43437F131B4F6C
:1008B000077F47477F47477F07072B137F43437BCC
:1008C00043437F03033F5F1F5F5F5F5F5F5F1F1FE8
:1008D0005FBF1F5F5F5F5F5F5F1F1F29117D434326
:1008E0004343437D010103037B4747E747477B03BE
:1008F000030911636353534B4B47010115096363AC
:1009000053534B4B47010109113D43434343433D7F
:10091000010119253D43434343433D01010B153D6F
:1009200043434343433D010125013D434343434387
:100930003D0101070707074F37374F070707291101
:100940007D43437D4343430101132B5747474747AB
:10095000473B03030B134747474747473B030317EF
:100960002B4747474747473B03032B034747474727
:1009700047473B03030B1347472B1313131303037F
:1009800003037F13131313131313330303334B4B5B
:100990007B47475B03031F3F5F1F7F5F5F5F5F1FF7
:1009A0001F07172707370F3F4F3F070707172F0767
:1009B000370F3F4F3F0707074F3707370F3F4F3F6F
:1009C000070707072F07370F3F4F3F07073F5F5FB7
:1009D0005F5F5F5F5F5F1F1F07172707374F474F37
:1009E00037070707070707374F474F371737072FCF
:1009F0001707374F474F37070707172707374F7F27
:100A00004737070707070707374F7F473727370756
:100A1000074F07374F7F47370707072F1707374F0E
:100A20007F473707071F3F5F1F5F5F5F5F5F1F1FC6
:100A30001F5FBF1F5F5F5F5F5F1F1F03030F0F3BE2
:100A40004B4B4B3B0303030B1F0B3B4B4B4B3B03F2
:100A50000307172707774F4F4F4F070707572707FA
:100A6000774F4F4F4F0707030B13033B4747473B56
:100A7000030303132B033B4747473B030303172B96
:100A8000033B4747473B030303032B033B474747CE
:100A90003B03030F0F0F0F2F0F7F0F2F0F0F1FBFE2
:100AA0005F1F7F5F5F5F5F1F1F07172F174F4F4F3E
:100AB0004F3F0707071727074F4F4F4F3F070707BE
:100AC0002F57074F4F4F4F3F070707074F074F4F0E
:100AD0004F4F3F07070F1F2F0F5F5F5F5F3F1F6F76
:100AE0001F1F1F5F7F5F5F5F3F3F5FBF3F3F3F3F16
:100AF0003F3F3F3F3F3F11241FBECFE5D4E0DEBF65
:100B0000CDBF10E0A0E6B0E0E8E0FBE202C0059057
:100B10000D92A03BB107D9F720E0A0EBB0E001C0F7
:100B20001D92A53CB207E1F70E94CF110C948215EB
:100B30000C9400006F927F928F929F92AF92BF921F
:100B4000CF92DF92EF92FF920F931F93CF93DF9399
:100B5000D82E162FB42EC22EC22FD0E0C61BD1091C
:100B6000E42EF12CE81AF108D7FF06C0D195C19503
:100B7000D10988248A9402C088248394F7FE06C091
:100B8000F194E194F10899249A9402C099249394E1
:100B9000CC0FDD1FEE0CFF1C402F612F8D2D0E940E
:100BA0009611CE15DF05E4F4C701959587953E01B2
:100BB000681A790ADB1481F177FC03C0180D6E18EE
:100BC0007F08D90C6C0E7D1E023021F4412F4D0D93
:100BD000417001C0402F612F8D2D0E949611EACFE8
:100BE000CE01959587955701A81AB90A1C15A1F051
:100BF000B7FC03C0D90CAC1ABD0A180DAE0CBF1C53
:100C0000023021F44D2D410F417001C0402F612F62
:100C10008D2D0E949611EACFDF91CF911F910F91F8
:100C2000FF90EF90DF90CF90BF90AF909F908F900C
:100C30007F906F9008957F928F929F92AF92BF9214
:100C4000CF92DF92EF92FF920F931F93CF93DF9398
:100C5000182F7B015A016901EC0182E0882E912C4A
:100C6000AC16BD06ECF0023031F4CE01B4010E94A6
:100C70005E13482F01C0402F7C2E6E2D8C2F0E94BA
:100C80009611023031F4CE01B4010E945E13482F58
:100C900001C0402F6C2D872D0E9496112196E0CF28
:100CA000C2E0D0E0CE14DF04FCF0023031F4C70122
:100CB000BE010E945E13482F01C0402F9E2C6E2D56
:100CC000812F0E949611023031F4C701BE010E94AB
:100CD0005E13482F01C0402F692D8A2D0E94961166
:100CE0008FEFE81AF80ADECFDF91CF911F910F91B5
:100CF000FF90EF90DF90CF90BF90AF909F908F903C
:100D00007F9008954F925F926F927F928F929F9201
:100D1000AF92BF92CF92DF92EF920F93CF93DF9378
:100D20004C015B013A0129016C016C147D04ECF06B
:100D3000E5014C165D06ACF0CA15DB0559F0C4158B
:100D4000D50541F0C814D90429F0C614D70411F010
:100D50004E2D01C0402F6C2F8C2D0E949611219694
:100D6000E8CF8FEFC81AD80AE0CFDF91CF910F916B
:100D7000EF90DF90CF90BF90AF909F908F907F903B
:100D80006F905F904F900895CF92DF92EF92FF9215
:100D90000F931F93CF93DF93D82F162FF42ED22EBD
:100DA000C02F0C2D0E949A052E2D4C2F6D2D8F2DAE
:100DB0000E949A05212F4D2F6E2D8C2F0E949A058F
:100DC000DF91CF911F910F91FF90EF90DF90CF9027
:100DD00008954F925F926F927F928F929F92AF92FF
:100DE000BF92CF92DF92EF92FF920F931F93CF9318
:100DF000DF93082F962EEA01122F81E090E06C011C
:100E0000C41AD50A5A0181E0A81AB108AA0CBB1C61
:100E100093E0692E712CE12CF12CCE15DF050CF43A
:100E200049C0412F8C2E890C682D402E4E0C842DEC
:100E30000E949611412F592C5C1A652D842D0E9419
:100E40009611412F682D802E8E18882D0E949611A4
:100E5000412F652D882D0E949611412F892C8E0CD3
:100E6000682D4C2E400E842D0E949611412F592C36
:100E70005E18652D842D0E949611412F682D802EBD
:100E80008C1A882D0E949611412F652D882D0E9465
:100E90009611D7FC06C0CA18DB0882E0A81AB10870
:100EA0002197C60CD71C82E0680E711C8FEFE81AE0
:100EB000F80AB3CFDF91CF911F910F91FF90EF9080
:100EC000DF90CF90BF90AF909F908F907F906F906A
:100ED0005F904F900895E091B900F091BA0030977B
:100EE00011F08491089580E00895E091B900F091A7
:100EF000BA00309731F090E04F97E80FF91F8491D6
:100F0000089580E008956F927F929F92AF92BF9272
:100F1000CF92DF92EF92FF920F931F93CF93DF93C5
:100F20001F92CDB7DEB7403208F480C0E091B9001F
:100F3000F091BA00EF2B09F479C0922EF42EC62E50
:100F4000B82E842F0E947507E82E0E946B07A82EEA
:100F50002091B900E22FF091BA0001EE10E0682F65
:100F600070E031968FE18E0F821B8F15B0F4849163
:100F700090E0DC011197B7FD179693E0B595A79522
:100F80009A95E1F71196A69FC001A79F900DB69F75
:100F9000900D1124080F191FE4CFDC2C892D8170CE
:100FA000982E8D2D8C198A1508F03EC0E091B9005D
:100FB000F091BA00E00FF11FE491E98366246A948E
:100FC000762CF12CFE1461F18F2D877061F4FF20D7
:100FD00051F00F5F1F4FE091B900F091BA00E00FA0
:100FE000F11FE491E983930127703327898190E011
:100FF00002C0959587952A95E2F7992021F080FF08
:101000000AC040E003C080FF06C041E06D2D8F2D77
:101010008B0D0E949611F39481E0681A7108D2CF6B
:101020000F5F1F4FD394BDCF8E2D01C080E00F9076
:10103000DF91CF911F910F91FF90EF90DF90CF90B4
:10104000BF90AF909F907F906F9008950F931F93E4
:10105000CF93DF938C01C0E0D0E0F80181918F0144
:10106000882379F0893029F08A30A9F30E94750726
:1010700005C080E20E947507C80FD11DC80FD11DA1
:10108000ECCFCE01DF91CF911F910F910895CF93B7
:10109000DF93FC01C1E0D0E09191992321F09A30D7
:1010A000D9F72196F9CF0E946B07282F2C9FC001FA
:1010B0002D9F900D1124DF91CF9108952F923F9293
:1010C0004F925F926F927F928F929F92AF92BF9258
:1010D000CF92DF92EF92FF920F931F93CF93DF9304
:1010E000CDB7DEB72D970FB6F894DEBF0FBECDBFDC
:1010F0004C017D876C872A01390119870887FB8697
:10110000EA861A2D8091B6009091B7009A83898360
:10111000E091B400F091B500FC83EB838091750001
:10112000909176009E838D832090730030907400A0
:101130009A2D98709F83A3FC16C07093B70060939C
:10114000B6009092B5008092B400C401840F951F40
:101150009093760080937500CB01820F931F90933C
:1011600074008093730011FD0FC0012F0170E02EF9
:101170002C853D85260D371DA401440D551D6C851C
:101180007D85C4010E9482067601C12CD12CA12C40
:10119000B12CF70141917F01442311F1493039F01D
:1011A0004A3049F40E946B07C80ED11CF0CF80E290
:1011B0000E94750712C06C857D856C0D7D1DEA85CA
:1011C000FB856E0F7F1FC4018A0D9B1D212FE885B3
:1011D000F9858E0F9F1F0E948307A80EB11CD9CFDF
:1011E00014FF14C02C853D85260D371D2150310973
:1011F000A401440D551D415051096C857D856F5FDB
:101200007F4F02E0C40101960E941B06FF81F1118D
:1012100016C089819A819093B7008093B600EB81C4
:10122000FC81F093B500E093B4008D819E81909392
:1012300076008093750030927400209273002D9692
:101240000FB6F894DEBF0FBECDBFDF91CF911F91D7
:101250000F91FF90EF90DF90CF90BF90AF909F9055
:101260008F907F906F905F904F903F902F90089558
:10127000AF92CF92DF92EF92FF920F931F93AE2C1B
:101280006801E12CF12C00E010E00E945E081F9143
:101290000F91FF90EF90DF90CF90AF9008952F9235
:1012A0003F924F925F926F927F928F929F92AF92F6
:1012B000BF92CF92DF92EF92FF920F931F93CF9343
:1012C000DF93CDB7DEB728970FB6F894DEBF0FBE19
:1012D000CDBF2C0178876F834A0139016801E3FA99
:1012E000332730F93B831B01260C371C432F50E07A
:1012F000880D991D9A8389835B01A40EB51EC201D6
:10130000840F951F9D838C839101240F351F898144
:101310009A81480F591F01E0B5018C819D810E947F
:101320001B062E2D2170E0FC20E1C6012E830E94B9
:1013300047088C01C6010E94260873012E8177FEA2
:1013400003C03FEFE31AF30AF594E7941695079567
:10135000E01AF10A840197FE02C00F5F1F4F159536
:10136000079596958795081B190BB5016F5F7F4F01
:10137000A22E930122503109A401425051098C81BF
:101380009D8101960E945E088B818201811122C09D
:10139000E980FA809FEFE91AF90A63943F81630EAE
:1013A0000F5F1F4FE016F10630F041E0662D802FF1
:1013B0000E949611F5CF0F8118858394480C0F5F1A
:1013C0001F4F2016310600F141E0602F842D0E944E
:1013D0009611F5CF89819A818017910740F040E0FE
:1013E0006F81802F0E9496110F5F1F4FF3CF0F81E7
:1013F00018850F5F1F4F2016310630F040E0602F38
:10140000842D0E949611F5CF28960FB6F894DEBF72
:101410000FBECDBFDF91CF911F910F91FF90EF9045
:10142000DF90CF90BF90AF909F908F907F906F9004
:101430005F904F903F902F9008955F926F927F92B0
:101440008F929F92AF92BF92CF92DF92EF92FF92D4
:101450000F931F93CF93DF9300D000D01F92CDB78F
:10146000DEB73C01562EBE2CC8012B833C8349833A
:101470005A837D830E9447086E2D61702B813C81C9
:1014800049815A817D81E0FC60E1490137FF03C059
:101490009FEF891A990A95948794982F96957401CD
:1014A000E91AF108A62E680102E010E0652DC301DB
:1014B00005960E945E0801E0882D850D162D2EEF01
:1014C000C22EC80E33E0E32EE80EF82C8EEF850D09
:1014D000880E45E0D42ED60C902E960C41E06C2D53
:1014E000892D0E94961141E06E2D892D0E94961142
:1014F000982C900E41E0692D812F0E94961141E0B9
:10150000692D8D2D0E9496110F5F053029F7F50C7E
:10151000B1FAEE24E0F802E0010F4E2D6F2D802F7E
:101520000E9496111D5F4E2D6F2D812F0E949611E6
:10153000F3944E2D6F2D802F0E9496114E2D6F2DFE
:10154000812F0F900F900F900F900F90DF91CF9100
:101550001F910F91FF90EF90DF90CF90BF90AF90D1
:101560009F908F907F906F905F900C9496114F9208
:101570005F926F927F928F929F92AF92BF92CF9223
:10158000DF92EF92FF920F931F93CF93DF9300D0E0
:1015900000D0CDB7DEB74C012B01BE2CC8012B8388
:1015A0003C8349835A830E9447086E2D61702B81CA
:1015B0003C8149815A81E0FC60E1390137FF03C079
:1015C0009FEF691A790A75946794982F969573011D
:1015D000E91AF108A62E680102E010E0B201C40188
:1015E00005960E945E08B201660D771D9B012C5F77
:1015F0003F4FA4014A5F5F4F6250710901E0C4018F
:101600000E941B06B1FABB24B0F8842D860D13E0AE
:10161000180F25E0F22EF80CEE24EA94E80E8394DD
:101620000B2D212F4F2D6E2D882D0E949A05212FD5
:10163000482D6E2D8F2D0E949A050F900F900F90C0
:101640000F90DF91CF911F910F91FF90EF90DF905E
:10165000CF90BF90AF909F908F907F906F905F9052
:101660004F9008958F929F92AF92BF92CF92DF9248
:10167000EF92FF920F931F93CF93DF936C01EB01D7
:101680007A01490158019B01280D391DAC014E0D0D
:101690005F1D01E00E941B06940122503109A70141
:1016A00042505109BE016F5F7F4FE12C8501C60199
:1016B00001960E943809DF91CF911F910F91FF9001
:1016C000EF90DF90CF90BF90AF909F908F90089554
:1016D0002F923F924F925F926F927F928F929F9242
:1016E000AF92BF92CF92DF92EF92FF920F931F9330
:1016F000CF93DF93CDB7DEB72A970FB6F894DEBF4E
:101700000FBECDBF5C014B0158874F8339011E834B
:101710000D832701C4FC0FC08C019A01280F391FCB
:101720003A832983F62EF60C37E0E32EE60E49EFD6
:10173000D42EDF0C44C18B011B01220E331EFF800F
:10174000F80E97E0E92EEA0C29EFD22EDF0C2016D6
:101750003106BCF041E0602F8A2D0E94961141E0D5
:10176000602F8E2D0E94961141E0602F8F2D0E94D8
:10177000961141E0602F8D2D0E9496110F5F1F4F33
:10178000E6CF01E010E0E82CE60CC02ECA0C41E0E8
:10179000682D8C2D0E949611DF2CD01A41E0682D07
:1017A0008D2D0E94961141E06E2D8C2D0E94961178
:1017B00041E06E2D8D2D0E9496110F5F1F4F083056
:1017C000110519F70A2D77FE03C03FEF631A730A5C
:1017D00075946794BEEFDB2ED60CD80C10E00B5F2F
:1017E0008BEFE82EEF0CC12ECD0C41E06C2D802F3D
:1017F0000E94961141E06C2D8E2D0E9496111F5F64
:10180000153089F7680CE2E0CE2EC60C41E06C2D55
:1018100014E01A0D812F0E949611FEEFDF2ED60CD8
:1018200041E06D2D812F0E949611EE24E394E60C89
:1018300041E06E2D13E01A0D812F0E9496110FEFDB
:10184000060D41E0602F812F0E94961141E0662D28
:1018500082E08A0D0E9496111CEF1F0D41E06C2D55
:10186000812F0E94961141E06D2D812F0E949611CB
:101870001DEF1F0D41E06E2D812F0E94961141E05A
:10188000602F812F0E94961141E0662D8EEF8F0D03
:101890000E9496118F81988540979A8389836D81E4
:1018A0007E810E945E138B016330710514F403E0A6
:1018B00010E0F5013896FC83EB83BF01FF0F880B26
:1018C000990B0E9489146B017C01B201550C880BA5
:1018D000990B0E9489142B013C012D813E81B90195
:1018E000330F880B990B0E9489149B01AC01C30133
:1018F000B2010E94DF132B013C0169817A81601BD8
:10190000710B072E000C880B990B0E9489149B0108
:10191000AC01C301B2010E9415159B01AC01C701C6
:10192000B6010E9473130E9451146B0174018F81E0
:101930009885A80EB91E350197E0691A71080C0D3B
:101940001D1D72E0A72EB12C2E143F040CF471C1A2
:10195000E814F90419F45524539406C081E0E21404
:10196000F30409F080E0582E2B813C8126153705C1
:1019700014F52C153D0589F02017310771F0C216BA
:10198000D3061CF42017310754F0C9018E0D9F1D9A
:10199000B5010E945E13482F03C041E001C0452DF0
:1019A0006E2D822F29873A870E94961129853A85C4
:1019B0002F5F3F4FDBCFEFEFEE1AFE0AC5CF298135
:1019C0003A8120173107BCF041E0682D802F0E943A
:1019D000961141E06E2D802F0E94961141E06F2DEF
:1019E000802F0E94961141E06D2D802F0E9496114C
:1019F0000F5F1F4FE4CF01E010E0E82CDF80DA0C2E
:101A0000C02EC80C41E06C2D8A2D0E94961141E039
:101A10006C2D8D2D0E949611CF2CC01A41E06C2D9B
:101A20008A2D0E94961141E06C2D8D2D0E949611F9
:101A30000F5F1F4F0830110519F78F81988597FDAB
:101A4000019695958795382E3A0C1EEF130D53E0AD
:101A5000D52ED30C212E65E0C62ECE0C0BEF0F0D2C
:101A600041E06C2D822D0E94961141E0602F822D65
:101A70000E94961123942D10F3CF04E00E0D41E047
:101A8000602F812F0E94961192E0D92ED30C41E055
:101A9000602F8D2D0E94961123E0C22ECE0C0FEFE9
:101AA000030D41E06C2D802F0E9496112224239477
:101AB000230C41E06C2D822D0E94961162E06E0D88
:101AC00041E0832D0E9496113CEFE32EEF0C41E0A4
:101AD0006E2D812F0E94961141E06E2D8D2D0E945A
:101AE00096111DEF1F0D41E0612F802F0E9496116E
:101AF00041E0612F822D0E9496116EEF6F0D41E043
:101B0000832D0E949611830100511109C8016D8136
:101B10007E810E945E1378876F836330710524F4A1
:101B200083E090E098878F83F4013896FC83EB8301
:101B3000BF01FF0F880B990B0E9489146B017C0178
:101B4000B201550C880B990B0E9489141B012C01C2
:101B50002D813E81B901330F880B990B0E948914A6
:101B60009B01AC01C201B1010E94DF131B012C01DA
:101B7000B8018F819885681B790B072E000C880BA4
:101B8000990B0E9489149B01AC01C201B1010E9412
:101B900015159B01AC01C701B6010E9473130E9489
:101BA00051147B018501680C791C97E0691A710852
:101BB0002F8038842E0C3F1C82E0882E912C2981A6
:101BC0003A8120173107ACF10A151B0519F4552489
:101BD000539408C081E0E981FA810E171F0709F0CC
:101BE00080E0582ECB80DC80C614D704FCF4CE14E1
:101BF000DF0489F0C214D30471F0EC14FD041CF46A
:101C0000C214D30454F0C601800F911FB4010E9486
:101C10005E13482F03C041E001C0452D6C2D802F7D
:101C20000E949611EFEFCE1ADE0ADECF0F5F1F4F34
:101C3000C6CF2A960FB6F894DEBF0FBECDBFDF9198
:101C4000CF911F910F91FF90EF90DF90CF90BF90B9
:101C5000AF909F908F907F906F905F904F903F904C
:101C60002F9008952F923F924F925F926F927F92A2
:101C70008F929F92AF92BF92CF92DF92EF92FF929C
:101C80000F931F93CF93DF93CDB7DEB768970FB64F
:101C9000F894DEBF0FBECDBF4C017B836A832A015F
:101CA0005901380117010E946B078983C8010E94FE
:101CB00047084981242F30E0B9010E944A138091DE
:101CC000B6009091B700988B8F87E091B400F091A7
:101CD000B500FA8BE98B40917500509176005C8BD2
:101CE0004B8B80917300909174009E8B8D8B8B0138
:101CF0001127C401840D951DEC2DE072EE87C5FE01
:101D000035C001501109029F5001039FB00C129F72
:101D1000B00C112484016C01FFEFCF1ADF0AFA80A6
:101D2000F394FA0C0F5F1F4FC016D10630F041E05C
:101D30006F2D802F0E949611F5CF0A811B817801AB
:101D4000EA0CFB1C2FEFE21AF20ADD24D394D40C28
:101D5000D80C0F5F1F4F0E151F0530F441E0602FA8
:101D60008D2D0E949611F5CF80E00CC00250110914
:101D7000C12C950148E050E06A817B8108970E9460
:101D8000680B88E0CA80DB80CA0CDB1C482F50E05F
:101D90005D834C837401E40CF51CE41AF50A01E040
:101DA0009601A7016A817B81C4010E941B068A817A
:101DB0009B8101969B878A879093B7008093B6009A
:101DC000F4013196FD87EC87F093B500E093B40001
:101DD000FFEFEF1AFF0AF0927600E092750021E023
:101DE000C21AD108D0927400C092730031E0A31AD5
:101DF000B1085981452F50E05987488791012F5FDD
:101E00003F4F249FC001259F900D349F900D1124BA
:101E10008A159B0584F0910120953095249FC0017F
:101E2000259F900D349F900D1124F501E80FF91FA7
:101E3000FF83EE8302C01F821E82B980B694FA81AE
:101E4000BF0E2E81B20E6A827B82188E1F8A80E0BE
:101E500090E092014C815D81241B350BF901329792
:101E6000FD83EC83282D240D3EEF532E520E4DEFB3
:101E7000942E920E5CEF852E820EEA81FB812191D9
:101E8000FB83EA83222309F487C02A3049F02E33EA
:101E900009F47FC0FC01E855FF4F20830196EDCF88
:101EA000FC01E855FF4F1082FF896F2E712C6214E0
:101EB000730411F088E001C089E06A857B852F8971
:101EC0003981239F600D711D11244E815F81640F44
:101ED000751FA82E98EAC92E90E0D92EE12CF12C7E
:101EE00001E010E0288539854C815D818C859D85D8
:101EF0000E945E085E85552309F444C0888D8823BE
:101F000009F440C0EE24E3946214730409F4E12C54
:101F10001B2D9F89E9819E9F100D112401E0010F67
:101F20004E2D602F852D0E9496114E2D612F892DEB
:101F30000E9496114E2D602F892D0E94961182E0ED
:101F4000F82EF10E4E2D6F2D892D0E9496116FEFF8
:101F5000610F4E2D882D0E9496114E2D612F882DD8
:101F60000E9496114E2D602F882D0E9496114E2DA5
:101F70006F2D882D0E94961163E0610F4E2D882DE4
:101F80000E949611FF89FF5FFF8B188E80E090E022
:101F900074CF21E0288F71CF2F8538893093B70017
:101FA0002093B60049895A895093B5004093B400F4
:101FB0008B899C899093760080937500ED89FE89CA
:101FC000F0937400E093730068960FB6F894DEBF48
:101FD0000FBECDBFDF91CF911F910F91FF90EF907A
:101FE000DF90CF90BF90AF909F908F907F906F9039
:101FF0005F904F903F902F900895CF92EF92FF9275
:102000000F931F93EE2DE062CE2E7801890120E020
:1020100030E00E94320E1F910F91FF90EF90CF9011
:1020200008959FEF91BB813011F4939A089582B384
:1020300082BB0895979A0000000000000000000095
:102040000000000000000000000000000000000090
:102050000000000000000000000000000000000080
:102060000000000000000000000000000000000070
:102070000000000000000000000000000000979831
:1020800084E68093BD000895611103C09198909AF1
:1020900004C0613011F49098919A949896989FEFAB
:1020A0009ABB8BBB0E941A101BBA0895CF9387FD71
:1020B00021C0603408F060E08093BE006093BF00F0
:1020C0006695669566956093C000803418F08054DC
:1020D00061E001C060E080640E944410C091C000D3
:1020E000C86B60E08C2F0E94441061E08C2FCF9170
:1020F0000C944410603448F01092BE001092BF005F
:102100001092C00060E080E0E6CF80E0D5CF1F9362
:10211000CF93DF931F92CDB7DEB71BBA1ABA909157
:10212000BE00903418F49198909A02C09098919AB9
:102130009091BE00903431F4882321F061E080E476
:102140000E944410949A969A979A0000000000000A
:10215000000000000000000000000000000000007F
:10216000000000000000000000000000000000006F
:10217000000000000000000000000000000000005F
:10218000000000000000000000000000000000004F
:10219000000019B3979819828981843620F48981C7
:1021A0008F5F8983F9CF8FEF8ABB6091BF008091E9
:1021B000BE000E9456108091B80081111095812FA9
:1021C0000F90DF91CF911F91089581E00E948710B9
:1021D00080E00C948710EF92FF920F931F93CF93A0
:1021E000DF93C82F8091BE0087FD5EC0803418F455
:1021F0009198909A02C09098919A8091BE008034F4
:1022000019F461E00E944410949A9698DFEFDABBCB
:102210001091BF001770D9F102B30E94E51002BB04
:10222000DABBD0E0E12EF12C9E0101C0220F1A95FD
:10223000EAF7822B9091B800911180958BBB0E9498
:102240001A106091BF00685F8091BE000E94561016
:102250000E94E51002BB9FEF9ABB28E030E02E19E8
:102260003F0902C0D595C7952A95E2F7C82B809102
:10227000B8008111C095CBBB0E941A106091BF00BD
:1022800068508091BE008F5F0E9456100CC08091F4
:10229000B8008111C095CBBB0E941A108091BE007E
:1022A0008F5F8093BE001BBADF91CF911F910F917A
:1022B000FF90EF900895CF93DF9360E080E00E945D
:1022C0005610C0E880E00E94EB10C150D9F7C85FFB
:1022D0006C2F80E00E945610D0E880E00E94EB1046
:1022E000D150D9F7C83399F7DF91CF910895EEEB2C
:1022F000F0E01082118212828093B8008FEF81BBD0
:1023000060E08FE30E94441061E08FE30E9444107C
:1023100060E080EC0E94441061E080EC0E94441078
:102320000E945B1160E080E00C9456101F93CF93E5
:10233000DF931F92CDB7DEB7162F687F49830E94C7
:1023400056100E94E5101770498121E030E001C06D
:10235000220F1A95EAF7411103C02095822301C08C
:10236000822B0F90DF91CF911F910C94EB100FEF08
:102370001FEF2AE00A95F1F71A95E1F72A95D1F7B0
:102380008A95C1F708953FEF4FEF5FE33A95F1F774
:102390004A95E1F75A95D1F78A95C1F70895EF92DA
:1023A0000F931F93CF93DF938FEF8ABB81BB80EF97
:1023B00087BB0E945B1181E00E9411102FEF83ED1B
:1023C00090E3215080409040E1F700C0000080E0A1
:1023D0000E94771184E590E09093BA008093B90051
:1023E00001E02FE330E04FE750E060E070E080E094
:1023F00090E00E941B06E12C07E710E024E130E0AA
:1024000040E550E065E070E08AE090E00E94380925
:102410000AE810E024E130E040E550E064E170E0DB
:102420008BE190E00E94380908E910E024E130E0F7
:1024300040E550E06EE170E089E190E00E943809EB
:1024400081E00E94C31101E027E330E045E550E060
:1024500062E370E088E290E00E941B0680916D00CC
:1024600090916C00891760F540917200480F01E06F
:1024700023E363E30E949A0580916D00409172000E
:10248000480F24E364E30E949A0580916D00409117
:102490007200480F25E365E30E949A0580916D0064
:1024A00040917200480F26E366E30E949A0581E09E
:1024B0000E94B71180916D008F5F80936D00CECF29
:1024C0000E945B11E12C07EA10E024E130E040E5D6
:1024D00050E065E070E082E090E00E94380909EA8F
:1024E00010E024E130E040E550E064E170E082E09B
:1024F00090E00E9438090BEA10E024E130E040E56A
:1025000050E063E270E082E090E00E9438090DEA5A
:1025100010E024E130E040E550E062E370E082E06A
:1025200090E00E94380981E00E94C311D0EE10EFC4
:10253000C7E080917100882309F4A6C090917000D3
:1025400080916E00981708F095C0D8BB8FE39FE18B
:102550000197F1F700C00000B09903C0C093B0002C
:1025600002C01092B000B19903C0C093B10002C084
:102570001092B100B29903C0C093B20002C0109291
:10258000B200B39903C0C093B30002C01092B3006D
:1025900018BB80916B009091B300891B80936300FE
:1025A00080916A009091B200891B809362008091B3
:1025B00069009091B100891B80936100809168004F
:1025C0009091B000891B80936000209170008091F1
:1025D000720090E0820F911DAC014A5F5F4FE12CC9
:1025E00000E02DE330E062E070E00E94820680911E
:1025F000700040917200480F01E0209163006091EB
:1026000067000E949A058091700040917200480F07
:1026100020916200609166000E949A05809170008E
:1026200040917200480F20916100609165000E9406
:102630009A058091700040917200480F20916000CF
:10264000609164000E949A05809163008093670006
:1026500080916200809366008091610080936500A4
:102660008091600080936400809170008F5F809300
:10267000700064CF80916F00809370008091710032
:102680008F5F8093710055CFDF91CF911F910F9194
:10269000EF900895AA1BBB1B51E107C0AA1FBB1FE7
:1026A000A617B70710F0A61BB70B881F991F5A95DE
:1026B000A9F780959095BC01CD01089597FB072E51
:1026C00016F4009407D077FD09D00E944A1307FC46
:1026D00005D03EF4909581959F4F08957095619532
:1026E0007F4F08955058BB27AA270E948A130C9445
:1026F000DB140E94CD1438F00E94D41420F039F479
:102700009F3F19F426F40C94CA140EF4E095E7FBED
:102710000C94C414E92F0E94EC1458F3BA17620702
:1027200073078407950720F079F4A6F50C940E152D
:102730000EF4E0950B2EBA2FA02D0B01B9019001DC
:102740000C01CA01A0011124FF27591B99F0593F20
:1027500050F4503E68F11A16F040A22F232F342F68
:102760004427585FF3CF469537952795A795F040B6
:102770005395C9F77EF41F16BA0B620B730B840BCB
:10278000BAF09150A1F0FF0FBB1F661F771F881F83
:10279000C2F70EC0BA0F621F731F841F48F48795DB
:1027A00077956795B795F7959E3F08F0B0CF9395CD
:1027B000880F08F09927EE0F9795879508950E9446
:1027C000F3130C94DB140E94D41458F00E94CD141F
:1027D00040F029F45F3F29F00C94C41451110C947B
:1027E0000F150C94CA140E94EC1468F39923B1F3EA
:1027F000552391F3951B550BBB27AA276217730727
:10280000840738F09F5F5F4F220F331F441FAA1FBA
:10281000A9F335D00E2E3AF0E0E832D09150504076
:10282000E695001CCAF72BD0FE2F29D0660F771F24
:10283000881FBB1F261737074807AB07B0E809F00A
:10284000BB0B802DBF01FF2793585F4F3AF09E3F8F
:10285000510578F00C94C4140C940F155F3FE4F309
:10286000983ED4F3869577956795B795F7959F5FD2
:10287000C9F7880F911D9695879597F90895E1E01E
:10288000660F771F881FBB1F621773078407BA077D
:1028900020F0621B730B840BBA0BEE1F88F7E095D8
:1028A00008950E9458146894B1110C940F1508955E
:1028B0000E94F41488F09F5798F0B92F9927B751C8
:1028C000B0F0E1F0660F771F881F991F1AF0BA95D4
:1028D000C9F714C0B13091F00E940E15B1E008950F
:1028E0000C940E15672F782F8827B85F39F0B93F01
:1028F000CCF3869577956795B395D9F73EF4909587
:102900008095709561957F4F8F4F9F4F0895E89404
:1029100009C097FB3EF490958095709561957F4F27
:102920008F4F9F4F9923A9F0F92F96E9BB279395D5
:10293000F695879577956795B795F111F8CFFAF4E5
:10294000BB0F11F460FF1BC06F5F7F4F8F4F9F4F16
:1029500016C0882311F096E911C0772321F09EE874
:10296000872F762F05C0662371F096E8862F70E0DA
:1029700060E02AF09A95660F771F881FDAF7880FB4
:102980009695879597F9089597F99F6780E870E085
:1029900060E008959FEF80EC089500240A941616D5
:1029A000170618060906089500240A94121613063D
:1029B000140605060895092E0394000C11F48823CB
:1029C00052F0BB0F40F4BF2B11F460FF04C06F5FE7
:1029D0007F4F8F4F9F4F089557FD9058440F551FBD
:1029E00059F05F3F71F04795880F97FB991F61F091
:1029F0009F3F79F087950895121613061406551F08
:102A0000F2CF4695F1DF08C0161617061806991F73
:102A1000F1CF86957105610508940895E894BB2768
:102A200066277727CB0197F908950E9428150C9403
:102A3000DB140E94CD1438F00E94D41420F09523AA
:102A400011F00C94C4140C94CA1411240C940F1596
:102A50000E94EC1470F3959FC1F3950F50E0551F41
:102A6000629FF001729FBB27F00DB11D639FAA27E3
:102A7000F00DB11DAA1F649F6627B00DA11D661F32
:102A8000829F2227B00DA11D621F739FB00DA11D53
:102A9000621F839FA00D611D221F749F3327A00D0D
:102AA000611D231F849F600D211D822F762F6A2FA9
:102AB00011249F5750409AF0F1F088234AF0EE0F0E
:102AC000FF1FBB1F661F771F881F91505040A9F73B
:102AD0009E3F510580F00C94C4140C940F155F3F79
:102AE000E4F3983ED4F3869577956795B795F79577
:102AF000E7959F5FC1F7FE2B880F911D96958795EF
:082B000097F90895F894FFCF46
:102B08003A2B1C0D3A2B1C0D3A2B1C0D5528730F14
:102B18000F01013F007F004C4F4749434B5920416B
:102B28004E414C595A41544F52004C554B41532039
:102B38005A4452415A494C004D49524F534C415600
:102B4800204B4C45494E00410042004300440000E0
:00000001FF
